:400000000080002011000000012100000121000008B5044B1A6803F53F5302331A6002F08FF800BFFA46004010B5054C237833B9044B13B10448AFF300800123237010BDAA
:400040005881FF1F0000000084270000084B10B51BB108490848AFF300800848036803B910BD074B002BFBD0BDE81040184700BF000000005C81FF1F84270000C880FF1F8C
:400080000000000000F1080343604FF0FF328260C360036100230360704700BF00230361704700BF43684B609A688A609A68516099600861036801330360704730B40D6866
:4000C000B5F1FF3F01D1026907E000F1080200E01A4653681C68A542FAD253684B6099608A605160086103680133036030BC704703694268816891608268416851605A68CD
:40010000904201D182685A60002202611A68013A1A601868704700BF82B0002301934FF0A00383F31188BFF36F8FBFF34F8F019B002BFCD002B0704706480068006880F31E
:40014000088862B661B6BFF34F8FBFF36F8F00DF00BF000008ED00E04FF0807340F8043C21F0010140F8081C034B40F80C3C40F8202C4038704700BF19010000000000009A
:40018000074B19680868B0E8F00F80F30988BFF36F8F4FF0000080F311884EF00D0E70476884FF1F4FF0A00383F31188BFF36F8FBFF34F8F024A136801331360704700BF37
:4001C000CC80FF1F034A1368013B13600BB983F311887047CC80FF1F0000000000000000EFF30980BFF36F8F0D4B1A6820E9F00F10602DE908404FF0A00080F3118800F084
:400200000FFF4FF0000080F31188BDE8084019680868B0E8F00F80F30988BFF36F8F70476884FF1F08B54FF0A00383F31188BFF36F8FBFF34F8F00F0EDFD18B14FF08052D9
:40024000024B1A60002383F3118808BD04ED00E0054B00221A6005490A6045F6BF51044A116007221A60704710E000E018E000E014E000E010B50B4B1A6842F460021A60BC
:400280001A6842F060421A60FFF7E2FF0024064B1C60FFF751FF00F0C3FEFFF73DFF204610BD00BF20ED00E0CC80FF1F436A23B1036B1868C0F1200070470020704700BFA7
:4002C00010B50446FFF76EFFA26BE36B9A4201D1012400E00024FFF775FF204610BD00BF10B50446FFF75EFFA36B0BB9012400E00024FFF767FF204610BD00BF70B50446E4
:400300001646856B026C3AB9036843BB806801F02FF80023A36029E06EB9406802F06CF96268236C13446360A268934219D32368636000201AE0C06802F05EF9236C5B420F
:40034000E2681A44E26021688A4202D2A2681344E360022E07D145B1013D002006E0002004E0002002E0002000E000200135A56370BD00BF026C72B110B5C3681344C36039
:400380008468A34201D30368C3600C46C168204602F032F910BD704738B50546FFF702FF95F8454064B20AE06B6A53B105F1240000F0F2FE08B100F05FFF013C64B2002CEE
:4003C000F2DCFF2385F84530FFF7FCFEFFF7EAFE95F8444064B20AE02B6953B105F1100000F0DAFE08B100F047FF013C64B2002CF2DCFF2385F84430FFF7E4FE38BD00BFFB
:4004000038B504460D46FFF7CDFE2168E26B236C03FB0210A0600020A0636160013A02FB0313E360FF2384F8443084F845307DB92369ABB104F1100000F0AEFE80B14FF055
:400440008052094B1A60BFF34F8FBFF36F8F07E004F11000FFF716FE04F12400FFF712FEFFF7B0FE012038BD04ED00E010B5029B0C4609B91B6000E01A60D8631C640121D4
:400480001846FFF7BDFF10BDF0B583B0054617460E4611B100FB01F000E00020483001F0E9F9044638B100903B4600F1480231462846FFF7DBFF204603B0F0BDF0B585B0BE
:4004C00004460F4601921E460025FFF76BFEA26BE36B9A4201D3022E21D1324639462046FFF70CFF636A6BB104F1240000F054FE88B14FF08052324B1A60BFF34F8FBFF390
:400500006F8F08E038B14FF080522D4B1A60BFF34F8FBFF36F8FFFF755FE01204EE0019B1BB9FFF74FFE002048E01DB902A800F06DFE0125FFF746FE00F05CFCFFF732FE6D
:4005400094F844305BB2B3F1FF3F02D1002384F8443094F845305BB2B3F1FF3F02D1002384F84530FFF72EFE01A902A800F058FEF0B92046FFF7A4FEA0B1019904F110007C
:4005800000F0E6FD2046FFF707FF00F0C3FC00289BD14FF080520A4B1A60BFF34F8FBFF36F8F92E72046FFF7F7FE00F0B3FC8CE72046FFF7F1FE00F0ADFC002005B0F0BD61
:4005C00004ED00E048B108B5002181600160C1600B460A46FFF772FF08BD704710B5024600210120FFF750FF0446FFF7EBFF204610BD00BFF8B5EFF311864FF0A00484F33C
:400600001188BFF36F8FBFF34F8F856BC46BA54201D3022B1BD11746054690F8454064B21A46FFF76BFEB4F1FF3F0AD16B6A83B105F1240000F0B0FD68B177B101203860EC
:400640000CE0013464B285F84540012006E0002004E0012002E0012000E0012086F31188F8BD00BFF0B585B004460F4601920026FFF798FDA56BC5B139462046FFF77AFEF5
:40068000013DA563236963B104F1100000F084FD38B14FF08052304B1A60BFF34F8FBFF36F8FFFF78FFD012053E0019B1BB9FFF789FD00204DE01EB902A800F0A7FD012664
:4006C000FFF780FD00F096FBFFF76CFD94F844305BB2B3F1FF3F02D1002384F8443094F845305BB2B3F1FF3F02D1002384F84530FFF768FD01A902A800F092FDF0B92046BE
:40070000FFF7EEFDA0B1019904F1240000F020FD2046FFF741FE00F0FDFB0028A8D14FF080520D4B1A60BFF34F8FBFF36F8F9FE72046FFF731FE00F0EDFB99E72046FFF7BB
:400740002BFE00F0E7FB2046FFF7CAFD00288FD0002005B0F0BD00BF04ED00E070B584B00446019100263546FFF71CFDA36BCBB1013BA363236813B900F08AFEA0602369B6
:4007800063B104F1100000F007FD38B14FF080523B4B1A60BFF34F8FBFF36F8FFFF712FD01206BE0019B1BB9FFF70CFD002065E01DB902A800F02AFD0125FFF703FD00F00A
:4007C00019FBFFF7EFFC94F844305BB2B3F1FF3F02D1002384F8443094F845305BB2B3F1FF3F02D1002384F84530FFF7EBFC01A902A800F015FD40BB2046FFF771FDF0B1BF
:4008000023683BB9FFF7CEFCA06800F04DFD0646FFF7D8FC019904F1240000F099FC2046FFF7BAFD00F076FB00289DD14FF08052134B1A60BFF34F8FBFF36F8F94E72046D5
:40084000FFF7AAFD00F066FB8EE72046FFF7A4FD00F060FB2046FFF743FD002884D066B1FFF7A0FC2046FFF721FD0146A06800F0C3FDFFF7A7FC002000E0002004B070BDF9
:4008800004ED00E070B584B004460E4601920025FFF788FCA36BC3B1E56831462046FFF769FDE560636A63B104F1240000F074FC38B14FF08052304B1A60BFF34F8FBFF366
:4008C0006F8FFFF77FFC012053E0019B1BB9FFF779FC00204DE01DB902A800F097FC0125FFF770FC00F086FAFFF75CFC94F844305BB2B3F1FF3F02D1002384F8443094F863
:4009000045305BB2B3F1FF3F02D1002384F84530FFF758FC01A902A800F082FCF0B92046FFF7DEFCA0B1019904F1240000F010FC2046FFF731FD00F0EDFA0028A8D14FF040
:4009400080520D4B1A60BFF34F8FBFF36F8F9FE72046FFF721FD00F0DDFA99E72046FFF71BFD00F0D7FA2046FFF7BAFC00288FD0002004B070BD00BF04ED00E000230BE0DF
:40098000074A52F8332032B9054A42F8331002EBC303586070470133092BF1D9704700BFF404002070B504460D461646FFF7FAFB94F844305BB2B3F1FF3F02D1002384F846
:4009C000443094F845305BB2B3F1FF3F02D1002384F84530FFF7F6FBA36B2BB93246294604F1240000F0C4FB2046FFF7D5FC70BD4269084B9A4206D1836A074A934204D032
:400A00002BB10020704700207047002070470120704700BF7481FF1F8881FF1F074B9B6A1B6823B94FF0FF32044BDA627047034B9A6AD268D2685268DA6270477481FF1F96
:400A400010B50446006B00F06BFF204600F068FF10BD00BF2DE9F04781460D4617469A46089EDDF824800A9C9200A521206B01F0CEFD236B07F18042013A03EB820727F040
:400A80000707002306E0E95CE21882F83410EA5C12B101330B2BF6D9002384F83F301F2E00D91F26E662266400256564201DFFF7F5FA04F11800FFF7F1FA2461C6F1200635
:400AC000A6616462A56484F84C50524649463846FFF742FB2060B8F1000F01D0C8F80040BDE8F08770B5002407E004EB8402930010481844FFF7C6FA01341F2CF5D90E4CC1
:400B000004F52C763046FFF7BDFA04F531752846FFF7B8FA04F11400FFF7B4FA04F53670FFF7B0FA2046FFF7ADFAA662C4F8EC5270BD00BFA481FF1F7481FF1F38B50546D7
:400B4000FFF730FB264BD3F8F0220132C3F8F022D3F8F4324BB9224BC3F8F452D3F8F032012B10D1FFF7BEFF0DE01D4BD3F8F8324BB91B4BD3F8F432DA6AEB6A9A4202D802
:400B8000174BC3F8F452164CD4F8FC320133C4F8FC32EB6A012202FA03F1D4F800230A43C4F8002304F1300003EB83039A00291D1044FFF777FAFFF705FBD4F8F8326BB199
:400BC000D4F8F432DA6AEB6A9A4207D24FF08052044B1A60BFF34F8FBFF36F8F38BD00BF7481FF1F04ED00E038B517E0FFF7DAFA0D4CD4F8E432DD68281DFFF779FAD4F85B
:400C0000F032013BC4F8F032D4F80433013BC4F80433FFF7D7FA2846FFF712FF024BD3F80433002BE2D138BD7481FF1F08B5FFF7DBFFFCE770B504460E461E4BD3F8085313
:400C4000D3F8F4020430FFF753FA60B9194BD3F8F422D16A012202FA01F1D3F8002322EA0102C3F80023B4F1FF3F07D136B11148D0F8F4120431FFF715FA70BD2C440D4BBF
:400C8000D3F8F4325C60A54208D90A4BD3F8EC02D3F8F4120431FFF711FA70BD054DA86AD5F8F4120431FFF709FAEB6A9C4200D2EC6270BD7481FF1F2DE9F04385B00646BB
:400CC0000F4615469846900000F0D4FD60B18146502000F0CFFD044610B1C0F8309004E0484600F01DFE00E000248CB10023039302940D9B01930C9B009343462A46394693
:400D00003046FFF7A7FE2046FFF718FF012001E04FF0FF3005B0BDE8F08300BF1B4BD3F8F432984230D078B370B50446FFF73AFA2046FFF75DFE20B3261D3046FFF7D8F934
:400D4000E36A012202FA03F1104DD5F800230A43C5F8002305F1300003EB83039A0031461044FFF79FF9E26AD5F8F432DB6A9A4207D34FF08052064B1A60BFF34F8FBFF3B4
:400D80006F8FFFF71FFA70BD704700BF7481FF1F04ED00E000B583B0124B019300230093642211491148FFF787FF012801D100F0EBFB012813D14FF0A00383F31188BFF3DA
:400DC0006F8FBFF34F8F0A4B4FF0FF32DA620122C3F8F8220022C3F80823FFF74BFA03B05DF804FB8484FF1F882700002D0C00007481FF1F034AD2F80C330133C2F80C337E
:400E0000704700BF7481FF1F014BD3F8080370477481FF1F2DE9F0413D4BD3F80C33002B62D13B4BD3F808730137C3F8087367B99A6AD3F8EC129962C3F8EC22D3F8142319
:400E40000132C3F81423FFF7E9FD314BDB6A9F4205D24FF000083BE04FF0010801E04FF000082B4B9B6A1B6823B94FF0FF32284BDA622DE0264B9B6ADB68DC6863689F4277
:400E800002D2234AD36223E0261D3046FFF730F9A36A1BB104F11800FFF72AF9E36A012202FA03F11A4DD5F800230A43C5F8002305F1300003EB83039A0031461044FFF709
:400EC000F1F8E26AD5F8F432DB6A9A42C4D2C8E70F49D1F8F432DB6A03EB83039A000A44136B012B09D80AE0094AD2F818330133C2F818334FF0000801E04FF00108044BA7
:400F0000D3F81C330BB14FF001084046BDE8F0817481FF1F70B5FFF745F9324BD3F80C23013AC3F80C23D3F80C33002B53D12D4BD3F8F03243BB002450E02A4C236ADD6897
:400F400005F11800FFF7D4F82E1D3046FFF7D0F8EB6A012202FA03F1D4F800230A43C4F8002304F1300003EB83039A0031461044FFF798F8EA6AD4F8F432DB6A9A4204D3DD
:400F80000122C4F81C2300E00025164B5B69002BD3D10DB1FFF742FD124BD3F8184364B1FFF738FF18B101220E4BC3F81C23013CF6D100220B4BC3F818230A4BD3F81C3342
:400FC0005BB14FF08052084B1A60BFF34F8FBFF36F8F012402E0002400E00024FFF7F2F8204670BD7481FF1F04ED00E010B548B10446FFF7FFFE00212046FFF71BFEFFF7BA
:4010000089FF00E0002038B94FF08052034B1A60BFF34F8FBFF36F8F10BD00BF04ED00E01A4BD3F80C3323B10122184BC3F81C23704710B4154A0023C2F81C33D2F80033FB
:40104000B3FA83F3DBB2C3F11F039800C418A10011444C6B64684C6302F130011844820008320A44944206D1606803EB83018A0006490A445063054903EB83039A000A4459
:40108000536BDB68C1F8F43210BC70477481FF1F38B50446FFF786F814B92B4BD3F8F442251D2846FFF724F880B9E26A02EB82018B0025490B441B6B43B9012303FA02F235
:4010C000D1F8003323EA0202C1F80023A36A1BB104F11800FFF70CF829461B48FEF7E2FF94F84C30DBB2012B02D1002384F84C30FFF768F8144BD3F8F8322BB1FFF752F80A
:40110000FFF78CFCFFF75EF80F4BD3F8F4329C4219D10D4BD3F8F83243B14FF080520B4B1A60BFF34F8FBFF36F8F38BD064B1A68D3F8F0329A4204D10022034BC3F8F422C9
:4011400038BDFFF76DFF38BD7481FF1F04ED00E010B50C46054BD3F8F4121831FEF7AEFF01212046FFF766FD10BD00BF7481FF1F38B50D461446074BD3F8F4121831FEF7A1
:4011800091FF0CB14FF0FF3521462846FFF752FD38BD00BF7481FF1F38B5C368DC6804F118052846FEF7A4FF164BD3F80C33B3B9251D2846FEF79CFFE36A012202FA03F1A3
:4011C0001048D0F800230A43C0F80023303003EB83039A0029461044FEF764FF03E029460948FEF75FFFE26A064BD3F8F432DB6A9A4204D90120034BC3F81C0338BD00201B
:4012000038BD00BF7481FF1F8881FF1F034BD3F814230260D3F80833436070477481FF1FF8B504460D46FEF7BDFF124BD3F808136268881A2B68B3F1FF3F14D027680D4EAE
:40124000D6F81463B74201D091420ED2984206D21B1A2B602046FFF7D9FF002406E000232B60012402E0002400E00124FEF7AAFF2046F8BD7481FF1F0122024BC3F81C23E8
:40128000704700BF7481FF1F064BD3F8F8322BB1044BD3F80C331BB90220704701207047002070477481FF1F002858D038B50346C26A2D49D1F8F412C96A8A4246D28169C3
:4012C000002906DB2849D1F8F412C96AC1F120018161586902EB82029100244A114488422DD11C461D1D2846FEF702FF80B9E26A02EB82018B001C490B441B6B43B9012394
:4013000003FA02F2D1F8003323EA0202C1F800231548D0F8F432DB6AE362012404FA03F1D0F800230A43C0F80023303003EB83039A0029461044FEF7B5FE204638BD0A4A4C
:40134000D2F8F422D26ADA62012038BD026C064BD3F8F432DB6A9A4203D3002038BD00207047012038BD00BF7481FF1FA481FF1F002838D038B50346426C013A4264C06A22
:40138000196C884231D092BB1C461D1D2846FEF7AFFE80B9E26A02EB82018B0015490B441B6B43B9012303FA02F2D1F8003323EA0202C1F80023236CE362C3F12002A2618A
:4013C000012404FA03F10B48D0F800230A43C0F80023303003EB83039A0029461044FEF761FE204638BD00207047002038BD002038BD00BF7481FF1F002844D038B503464B
:40140000026C8A4200D20A46D96A8A423AD0586C012837D1DA629869002802DBC2F120029A61586901EB81018A0017490A44904228D11C461D1D2846FEF75AFE80B9E26A22
:4014400002EB82018B0011490B441B6B43B9012303FA02F2D1F8003323EA0203C1F80033E36A012202FA03F10848D0F800230A43C0F80023303003EB83039A002946104443
:40148000FEF710FE38BD7047A481FF1F7481FF1F064BD3F8F4322BB1044BD3F8F422536C01335364014BD3F8F40270477481FF1F064B1A6813680BB9012300E000230360BC
:4014C00013B9D36818687047002070479484FF1F08B54160006191420AD8D21A83699A4211D2011D0A4B5868FEF7E8FD002008BD9A4201D2994208D2011D054B1868FEF75D
:40150000DDFD002008BD012008BD012008BD00BF9484FF1F70B5FEF745FE0E4B9B68B3B90C4C04F10C063046FEF7ACFD04F120052846FEF7A7FD2660656000220C210A20AE
:40154000FEF7A2FFA06010B10349FFF717FAFEF739FE70BD9484FF1F902700002DE9F041079C7CB11D4616460F468046FFF7D2FFC4F80080A761E6612562069B6362201D0E
:40158000FEF78CFDBDE8F08100B583B0FFF7C2FF094B9B685BB1094B01931F23009300234FF4806206490748FFF786FB00E0002003B05DF804FB00BF9484FF1FC884FF1F15
:4015C000982700002D1800002DE9F04182B005460E4617469846282000F04CF9044640B10190089B009343463A4631462846FFF7B5FF204602B0BDE8F08100BF30B585B076
:40160000134CA56805B31C46019102920390052913DCFFF739FE022807D10023089A01A90B488068FEF74AFF0FE000231A4601A907488068FEF742FF07E00023224601A992
:401640002846FEF7D7FF00E0002005B030BD00BF9484FF1F70B582B01FE0DB681E68DC68251D2846FEF744FD636A20469847E369012B12D1A36933449E4207D26360246160
:4016800029460B4B1868FEF719FD06E0002100910B4632462046FFF7B1FF054B1B681A68002ADAD1024A51681160536002B070BD9484FF1F38B50546FFF7A6FB0446074B9A
:4016C0009B6B984204D2FFF7C5FF01232B6001E000232B60014B9C63204638BD9484FF1F70B582B005460E460E4B1B68DB68DC68201DFEF7FDFCE369012B0ED1A1692B460A
:40170000324629442046FFF7E3FE30B1002100910B462A462046FFF771FF636A2046984702B070BD9484FF1F70B582B006460C46FFF760FB01A8FFF7BDFF019B23BB0546DA
:4017400044B9B04206D3FFF7E5FB29463046FFF7C7FF1BE034B10E4B5B681B680BB9012400E000242246711B094B9868FFF71AF9FFF7D0FB50B94FF08052064B1A60BFF315
:401780004F8FBFF36F8F01E0FFF7C4FB02B070BD9484FF1F04ED00E030B587B03AE0039B002B37DB059C636913B1201DFEF7A0FC02A8FFF77FFF039B092B2BD8DFE803F062
:4017C0000505052A1E2705052A1E0499A5690B46024629442046FFF77BFED8B1636A20469847E369012B15D1A269002100910B46049802442046FFF701FF0BE00499A161C4
:401800000346024601442046FFF762FE02E0204600F086F8002203A9034B9868FEF722FF0028BCD107B030BD9484FF1F00B583B001A8FFF73DFE0199FFF776FFFFF7ACFF37
:40184000F6E700BF094A22F00702094BC3F838290020C3F83C0947F6F871C3F84419C3F84009516003F5146313607047D884FF1F98FBFF1F70B50446FFF7BCFA244BD3F842
:4018800048392BB9FFF7DEFF0122214BC3F8482934B1083414F0070F02D024F007040834621E47F6F6739A422BD81949D1F8383901F6381101E0194613465A68944202D9E0
:4018C0001A68002AF7D1134A93421CD00D6808351A680A605A68121B102A0CD91E1972605C6074680C4900E011460A6850688442FAD832600E605968084A13685B1A136045
:4019000002E0002500E00025FFF704FB284670BD98FBFF1FD8040020D0040020D080FF1FD0B170B50546A0F10806FFF763FA55F8044C0A4A00E01A46136859688C42FAD80C
:4019400045F8083C166055F8043C054A11680B441360FFF7DFFA70BD704700BFD0040020D080FF1F034B044ADA62044A9A63044ADA6370470080FF1F81010000E10100001E
:401980002502000008B54FF0FF31034B1868FEF7E5FE00F0ADF9F6E75005002030B583B04FF0FF320DF107010C4B1868FEF75AFE0B4C4FF0FF312068FEF7D0FE9DF80700E7
:4019C00000F082FA054600231A4619462068FEF775FD284600F096FAE2E700BF600500205805002070B5002418E0104D4FF0FF312868FEF7B3FE002000F066FA06460023C5
:401A00001A4619462868FEF759FD304600F07AFA074A1378013313700134E4B2012CE4D9044B1868FFF734FBDDE700BF58050020E40400205405002008B5024B1868FFF7F5
:401A40006DF908BD5405002000B583B062B6FFF789FF00F023FD00F0FDFB2C4B01931423009300234FF4806229492A48FFF724F9294B01931223009300234FF480622749B0
:401A80002748FFF719F9274B01930C23009300234FF4806224492548FFF70EF9244B01931023009300234FF4806222492248FFF703F9224B01930E23009300234FF48062E3
:401AC0001F492048FFF7F8F81F4B00930023012241F288311D48FFF777FD1D4B1860032200210120FEF7D0FC1A4B18600120FEF775FD194B1860002201210846FEF7C4FCA2
:401B0000164B1860FFF746F9FEE700BF64050020A0270000851D00004C050020AC2700008519000044050020BC2700009D1900005C050020CC270000191C000054050020FB
:401B4000E0270000E5190000391A0000F02700004805002050050020580500206005002008B500231A46194602480068FEF7A6FC08BD00BF5005002000B583B002A901F8A5
:401B8000010D00234FF0FF3203480068FEF796FC03B05DF804FB00BF600500202DE9F04180460F461546961E18BF012600240BE0E119C9B2002000F07FFC331918F8030022
:401BC00000F01CFC0134E4B26B1C9C42F0DBBDE8F08100BF00B50E4BA3FB00235B0903F130020A70642202FB1303DBB2094AA2FB03E3DB0830334B70A2FB0023DB0803EBAC
:401C000083035A00801A303088705DF804FB00BF1F85EB51CDCCCCCC30B583B000F044F9044601A9FFF7D6FF642C01D1022400E001242246002101A8FFF7B0FF611C0020A9
:401C400000F03AFC202000F0D9FB023400F032F9054601A9FFF7BEFF642D01D1022500E001252A46214601A8FFF798FF2C44E4B2611CC9B2002000F01FFC202000F0BEFB92
:401C80000234E4B20E4B1D7801A92846FFF7A2FF642D01D1022500E001252A46214601A8FFF77CFF2919C9B20131C9B2002000F003FC202000F0A2FBC820FFF797F9ADE7F2
:401CC000E4040020094B1B781BB90122074B1A707047064B5B78142B03D9143B034A537070470022014B5A70704700BFD480FF1F08B500221146074B1868FEF7C3FD012810
:401D000003D00022044B5A7008BD0022024B1A7008BD00BF6C050020D480FF1F70B582B0134B009300231A460A211248FFF74CFC0546114B18600126104B1E70FFF764F841
:401D4000002400942346024631462846FFF756FC0B4D4FF0FF312868FEF700FDFFF700FF2346224621462868FEF7A8FB02B070BDC51C00000428000070050020D480FF1F3C
:401D80006C05002010B50120FEF728FC3F4B186042E03F4A5388013B9BB25380918801399180D1880139D1806BB900F039FC394BA3FB00231B09FA2202FB13033233344AA3
:401DC0005380FFF7ABFF324B9B8863B94FF496722F4B9A8000F024FCC0B200B901202E4B1870FFF7C9FE2A4BDB8893B94FF4FA72274BDA80294B1B78052B01D9052100E005
:401E00001946234842780A44053A42705B1A234A13700A20FFF7EAF81D4B5B781BB11F4B5B78632BB5D90021012000F045FB1B4B5B78632B04D91A4800F0D2FA00241DE0C3
:401E4000184800F0CDFAF9E7201C18BF012000F0D1F914F1FF3018BF012000F0D7F9A01E18BF012000F0DEF9E01E18BF012000F0E5F94B20FFF7BAF80134E4B2042CE3D986
:401E80004FF4FA70FFF7B2F8CDE700BF6C050020D480FF1FD34D621068050020E50400201428000020280000014B5878704700BFD480FF1F014B5878704700BFE504002014
:401EC00080F04E00704700BF38B504460B4B187028B1FFF7F5FF054640F6C41002E04FF4FA70002500F02AFB044B1B789C4202D00022034B5A70284638BD00BF690500203C
:401F0000D480FF1F10B50446054B1878FFF7D8FFA04203D1034A53780333537010BD00BF68050020E5040020FEE700BF064B1B78DBB203F00701054A11701B0901321370D0
:401F40004422034B1A707047CF0100496E5800407658004008B50A46002100F058FB08BD38B502221E4B1A7008224FF040231A70032103F5007319701A4B1B78DBB21A49AF
:401F80000B701A4B1A8041F25122023B1A80002419250CE0164B1B7803F0010343EA440404F003044FF4F07000F0EAFA013D0DB1032CEFD115B90320FFF7B6FF0D4B4FF4E8
:401FC00080721A8007221A7000220B490A704820023108701A700222033B1A7038BD00BF0043004008010049A14600402242004025420040044000400640004008B500F077
:40200000FBFA08BD38B572B62A4A137843F00403137000240CE0284D630019194A0011462A44084691882858FFF794FF0134E4B2052CF0D9214A137843F0020313701032C4
:40204000137843F00203137008224FF090411C48FFF7D4FF08221B491B48FFF7CFFF08221A491B48FFF7CAFF08221A491A48FFF7C5FF082219491A48FFF7C0FF0A22194975
:402080001948FFF7BBFF194A137843F008031370174C61232370FFF763FF812323700122144B1A70FFF742FF0E2213491348FFF7A5FF38BDE84600402C2800000350014048
:4020C0000251004008000048C251004010000048F2510040180000481251004020000048225100402800004830510040224300400048004004000840A0430040B0430040B1
:4021000008B500F04DFA03680C2B00D1FEE7FEE708B5094B1A681044084BC31A802B02DC054B186005E000F03BFA0C2303604FF0FF32104608BD00BFDC80FF1F7805002009
:4021400008B5104E104D16E029686B68AC68002204E051F8040B43F8040B0432A242F8D1E868002203E0002143F8041B04328242F9D11035013E002EE6D100F017FAFFF7FA
:4021800063FCFEE7010000007828000008B5104A104B1A60104A136843F40073136000230AE0032B03D80D4A52F8231000E00C490C4A42F8231001332F2BF2D90A4B1A783A
:4021C0000A4B1A70074A0A4B1A60FFF71BFF08BD0004FA050CED00E014ED00E000000000012100000080FF1FBC760040C080FF1F08ED00E0044A137803F0FE0300F001002B
:4022000018431070704700BF00510040044A137803F0FD03400000F0020018431070704700510040044A137803F0DF03400100F0200018431070704700510040044A1378A0
:4022400003F0BF03800100F040001843107070470051004008B5012000F04CF9012000F061F9012000F052F908BD00BF10B50B4C237803F09F032370237803F0F003237084
:402280002378184340F010002070012000F06CF9237803F0EF03237010BD00BF2051004038B505460E4C237843F020032370237803F0BF032370002000F056F9237803F0AC
:4022C000F003237023781D4345F010052570012000F04AF9237803F0EF03237038BD00BF2051004070B5354B1A7802F08002D2B21A7033490A7802F0F00242F00F020A705A
:4023000001310A7802F0F0020A7001310A7802F0F0020A701A7802F0DF021A701A7842F040021A704FF4CA76002000F01DF9234D2B7843F010032B70012000F015F9214BD2
:402340001C78E4B22B7803F0EF032B70002000F00BF904F00804E4B22B7843F010032B70012000F001F92B7803F0EF032B7014B90A2000F0F9F8013E0CB1002ED4D10F4AB4
:40238000137803F0BF031370137803F08003DBB213700232137803F0F00313700132137803F0F00343F00F0313700132137803F0F00343F00F03137070BD00BF20510040AC
:4023C000225100402151004010B50446FFF78AFF2009FFF765FF04F00F00FFF761FF10BD38B505460078012404E0FFF7EDFF285D0134E4B20028F8D138BD00BF08B5FFF7FE
:40240000E3FF08BD10B50446FFF76CFF2009FFF72DFF04F00F00FFF729FF10BD08B5282000F08CF80320FFF721FF052000F086F80320FFF71BFF0F2000F080F80320FFF724
:4024400015FF012000F07AF80220FFF70FFF052000F074F80620FFF7D5FF0E20FFF7D2FF2C20FFF7CFFF0820FFF7CCFF0120FFF7C9FF0C20FFF7C6FF0320FFF7C3FF05207A
:4024800000F05CF808BD00BF08B50C20FFF7BAFF0122014B1A7008BDE704002008B5054B5B7823B9FFF7BAFF0122024B5A70FFF7EBFF08BDE704002008B5032819D8DFE8FE
:4024C00000F002070D1381F08000FFF79BFF08BDA1F14000C0B2FFF795FF08BDA1F16C00C0B2FFF78FFF08BDA1F12C00C0B2FFF789FF08BD044A137803F0FE0300F0010000
:4025000018431070704700BF30510040044A137803F0F703C00000F0080018431070704730510040044A137803F0FD03400000F002001843107070473051004010B5044658
:4025400005E0084B186800F01BF8A4F50044B4F5004FF6D8034B586800FB04F000F010F810BD00BFE080FF1F08B5034B1B7A00FB03F000F005F808BDE080FF1F0000000040
:402580000230800803D000BF01380046FCD17047EFF3108072B6704780F31088704700BF014B1868704700BF5081FF1F0E4B70B51E460E4C0025E41AA410A54204D056F8AD
:4025C000253098470135F8E700F044F9084B094C1E46E41AA4100025A54204D056F8253098470135F8E770BD6028000060280000602800006828000010B5431E0A44914294
:4026000004D011F8014B03F8014FF8E710BD03460244934202D003F8011BFAE770470000194B10B51C68A36BD3B9182000F032F843F20E33A06303804AF6CD33438041F2CA
:40264000342383804EF26D63C3804DF6EC630381052343810B23838101220023C0E90423A16B0A4C0B6948695C43094A02FB0040A3FB02230132034443F10003C1E9042368
:4026800023F0004010BD00BF5081FF1F2DF451582D7F954C024B0146186800F003B800BF5081FF1F70B5CD1C25F0030508350C2D38BF0C25002D064601DBA94202D90C2375
:4026C000336046E000F05CF8234B1C681A462146A1B10B685B1B0ED40B2B03D90B60CC18CD501EE08C420BBF63684B681360636018BF0C4615E00C464968E9E7174C236860
:402700001BB9304600F02CF820602946304600F027F8431C18D0C41C24F00304A0420DD12560304600F02DF804F10B00231D20F00700C31A0ED05A42E25070BD211A3046F7
:4027400000F00EF80130EBD10C233360304600F018F8002070BD00BFF0040020EC04002038B5064C0023054608462360FFF7D0FC431C02D1236803B12B6038BD7405002044
:40278000704770470000000049444C4500000000546D725100000000546D72205376630067616D655F7461736B00000071756172616E74696E655F7461736B0076616363F7
:4027C000696E655F7461736B0000000073637265656E5F7570646174655F7461736B00006D65646963696E655F7461736B0000006D65646963696E655F74696D65725F7436
:4028000061736B00436F6E74616D696E6174696F6E00000020202057494E20200000000020204C4F53452020000000004051004030000000014000100014014000080040D5
:402840000140000A004C0140000200500140200043000000F8B500BFF8BC08BC9E4670474D0000008D210000F8B500BFF8BC08BC9E4670472900000088280000C880FF1F52
:40288000900000002084000000000000AAAAAAAAF87F0000016432002C01F401780500200000E02EC05D00001800000000366E010000000000000000000000000000000087
:4028C0000000000000000000000000000000000050280000000000000000000000000000000000000000000000000000000000000000000000000000000000000000000060
:4029000000000000000000000000000000000000F080FF1F000000000000000000000000000000000000000000000000000000000000000000000000000000000000000009
:402940000000000000000000000000000000000000000000000000000000000000000000000000000000000000000000000000000000000000000000000000000000000057
:402980000000000000000000000000000000000000000000000000000000000000000000000000000000000000000000000000000000000000000000000000000000000017
:4029C00000000000000000000000000000000000000000000000000000000000000000000000000000000000000000000000000000000000000000000000000000000000D7
:402A00000000000000000000000000000000000000000000000000000000000000000000000000000000000000000000000000000000000000000000000000000000000096
:020000040003F7
:0200000480007A
:4000000000636300000000003C00000000000000000F0F0000000000000B0B0000000000007F7F0000000000F00000F00B00000000000000000000000000000000000000A1
:400040000000000000000000000000000000000000000000000000000000000000000000000000000000000000000000000000000000000000000000000000000000000080
:400080000000000000000000000000000000000000000000000000000000000000000000000000000000000000000000000000000000000000000000000000000000000040
:4000C0000000000000000000000000000000000000000000000000000000000000000000000000000000000000000000000000000000000000000000000000000000000000
:4001000000000000000000000000000000000000000000000000000000000000000000000000000000000000000000000000000000000000000000000000000000000000BF
:0200000490006A
:0400000000004005B7
:0200000490105A
:04000000BC90ACAF55
:0200000490303A
:020000002EF9D7
:0200000490402A
:4000000000000000000000000000000000000000000000000000000000000000000000000000000000000000000000000000000000000000000000000000000000000000C0
:400040000000000000000000000000000000000000000000000000000000000000000000000000000000000000000000000000000000000000000000000000000000000080
:400080000000000000000000000000000000000000000000000000000000000000000000000000000000000000000000000000000000000000000000000000000000000040
:4000C0000000000000000000000000000000000000000000000000000000000000000000000000000000000000000000000000000000000000000000000000000000000000
:0200000490501A
:0C00000000012E16106900012E273F623F
:00000001FF